:100000000C9446000C9463000C9463000C94630001
:100010000C9463000C9463000C9463000C946300D4
:100020000C9463000C9463000C9463000C946300C4
:100030000C9463000C9463000C9463000C946300B4
:100040000C9463000C9463000C9463000C946300A4
:100050000C9463000C9463000C9463000C94630094
:100060000C9463000C9463000C9463000C94630084
:100070000C9463000C9463000C9463000C94630074
:100080000C9463000C9463000C94630011241FBE55
:10009000CFEFD0E1DEBFCDBF11E0A0E0B1E0EEEAEE
:1000A000F4E002C005900D92AE30B107D9F711E02F
:1000B000AEE0B1E001C01D92A731B107E1F70E94A7
:1000C000E1010C9455020C940000AC9A00C000C0F1
:1000D000AC98089587FF02C0AB9A01C0AB9886FF29
:1000E00002C0AA9A01C0AA9885FF02C0A99A01C0BD
:1000F000A99884FF02C0A89A0895A8980895CF935C
:10010000DF93C82FD62FA39AA29AA19AA09A0E94F1
:100110006A00DD2311F0AE9A01C0AE98AD980E943E
:100120006500C3FF02C0AB9A01C0AB98C2FF02C01A
:10013000AA9A01C0AA98C1FF02C0A99A01C0A998B1
:10014000C0FF02C0A89A01C0A898DD2311F0AE9AA2
:1001500001C0AE98AD980E946500A398A298A1989E
:10016000A098DF91CF910895A398A298A198A09804
:10017000AE98AD9AAC9A00C000C09B9B02C070E8DC
:1001800001C070E09A9B02C060E401C060E0999BEE
:1001900002C050E201C050E0989B02C040E101C0A3
:1001A00040E0AC9800C000C0AC9A00C000C033B3BF
:1001B00083B323B393B384703870832B2270822B64
:1001C0009170892B872B862B852B842BAC9887FDF0
:1001D000CBCF089520EF30E004C0F9013197F1F75B
:1001E00001970097D1F70895CF93C82F0E94B400CC
:1001F00060E08C2FCF910C947F00611102C0805879
:1002000001C080540C94F40081E00C94F40082E06E
:100210000C94F400CF93C82F0E94B40080930E0179
:1002200061E08C2F0E947F0080910E01CF91089594
:10023000CF93C82F80910F01883058F4809110011E
:10024000882339F0CA3029F01092100180EC0E9406
:10025000F40080910F01893050F0809110018823C3
:1002600031F0CA3021F0109210010E9404018091F7
:100270000F01883019F480EC0E94F40080910F0186
:10028000883411F40E940401CA3021F481E0809383
:10029000100107C0CC2329F08C2F0E940A01809303
:1002A0000F0180E090E0CF9108950F931F93CF93BB
:1002B000DF93EC0180E001C08F5FFE01E80FF11DCC
:1002C000E491E111F9CF6031710564F400E1061B9E
:1002D00010E004C080E20E940A011F5F1013FACFF1
:1002E00060E004C06F50861788F010E0062F011BF5
:1002F00009C0FE01E80FF11D8491882339F00E94A6
:100300000A011F5F802F810F1F3098F3DF91CF917B
:100310001F910F910895CF93DF93EC0102C00E94CB
:100320000A0189918111FBCFDF91CF910895CF937D
:10033000DF93EC0102C00E940A01FE012196849124
:100340008111F9CFDF91CF910895CF93C82FA39A50
:10035000A29AA19AA09AA69AA59AA49A80E190E05E
:100360000E94EA0080E30E946A000E94650086E025
:1003700090E00E94EA0080E30E946A000E9465000B
:1003800086E090E00E94EA0080E30E946A000E94FA
:10039000650086E090E00E94EA0080E20E946A0028
:1003A0000E94650088E20E94F40088E00E94F40048
:1003B0000E94040186E00E94F4008C2FCF910C94DF
:1003C000F400CF93DF93CDB7DEB72E970FB6F89436
:1003D000DEBF0FBECDBF8CE00E94A5010E940401CC
:1003E000BE016F5F7F4F8EE0FB0111928A95E9F7A6
:1003F00082E08C8388E191E09A8789877093160167
:100400006093150180E091E00E94110280E090E08D
:100410002E960FB6F894DEBF0FBECDBFDF91CF9101
:100420000895EF92FF920F931F93CF93DF937C0178
:100430008B01DB0113968C9181FF14C0C0E0D0E0EA
:100440000BC0D8011896ED91FC911997B801099548
:10045000892B11F0CFEFDFEFF70181917F0181113F
:10046000F0CF02C0CFEFDFEFCE01CDB7DEB7E6E0D1
:100470000C9446022A88398848885F846E847D847B
:100480008C849B84AA84B984C884DF80EE80FD803C
:100490000C811B81AA81B981CE0FD11D0FB6F894B2
:0E04A000DEBF0FBECDBFED010895F894FFCF73
:0E04AE00546869732069730A54616E6B2100F3
:00000001FF
